:020000040800F2
:10000000008001202D0500087D0500087D05000801
:100010007D0500087D0500087D0500080000000042
:100020000000000000000000000000007D05000846
:100030007D050008000000007D0500087D05000822
:10004000000000007D0500087D0500087D05000812
:100050007D0500087D0500087D0500087D05000878
:100060007D0500087D0500087D05000800000000F2
:100070000000000000000000000000000000000080
:1000800000000000000000007D05000800000000E6
:100090000000000000000000000000007D050008D6
:1000A0007D0500087D0500087D0500087D05000828
:1000B0007D0500087D0500087D0500087D05000818
:1000C0007D0500087D0500087D0500087D05000808
:1000D0007D0500087D0500087D0500080000000082
:1000E0007D0500087D0500087D0500080000000072
:1000F0000000000000000000000000000000000000
:10010000000000007D0500087D0500087D05000851
:1001100000000000000000000000000000000000DF
:1001200000000000000000000000000000000000CF
:1001300000000000000000000000000000000000BF
:100140000000000000000000000000007D05000825
:100150000000000000000000000000007D05000815
:100160007D0500087D05000800000000000000007B
:10017000000000000000000000000000000000007F
:10018000000000007D0500080000000000000000E5
:040190007D050008E1
:1001940010B5054C237833B9044B13B10448AFF3BD
:1001A40000800123237010BD000000200000000027
:1001B4009407000808B5034B1BB103490348AFF388
:1001C400008008BD0000000004000020940700081F
:1001D40080B485B000AF78600023FB6002E0FB6868
:1001E4000133FB607B684FF4487202FB03F3FA6847
:1001F4009A42F4D300BF00BF1437BD465DF8047BB8
:10020400704780B586B000AFF8600B467A607B819A
:100214000121786800F078FA7B893B6101233B7502
:100224000023BB750223FB7502237B7507F11003C2
:100234001946F86800F0A1F900BF1837BD4680BD23
:1002440080B586B000AFF8600B467A607B810121EF
:10025400786800F059FA7B893B6100233B750123E0
:10026400FB7502237B7507F110031946F86800F04B
:1002740084F900BF1837BD4680BD80B582B000AF99
:1002840078600B467B8013467B707B78002B05D00F
:100294007B881946786800F018FA04E07B881946D0
:1002A400786800F021FA00BF0837BD4680BD80B5EC
:1002B40082B000AF78600B467B807B8819467868F3
:1002C40000F0E9F9034618460837BD4680BD000032
:1002D40080B584B000AF0346FB710023FB7336E0A6
:1002E400012201211E48FFF7C8FF012202211C48F8
:1002F400FFF7C3FF01224FF400511A48FFF7BDFF77
:1003040001224FF400711848FFF7B7FF4FF49670BD
:10031400FFF75EFF002201211148FFF7AEFF002224
:1003240002210F48FFF7A9FF00224FF400510D48A6
:10033400FFF7A3FF00224FF400710B48FFF79DFF66
:100344004FF49670FFF744FFFB7B0133FB73FA7B9A
:10035400FB799A42C4D300BF00BF1037BD4680BDAD
:1003640000000240000402400008024080B584B04E
:1003740000AF0346FB710023FB7316E001224FF428
:1003840000610E48FFF779FF4FF49670FFF720FFE6
:1003940000224FF400610948FFF76FFF4FF4967095
:1003A400FFF716FFFB7B0133FB73FA7BFB799A4261
:1003B400E4D300BF00BF1037BD4680BD000002403B
:1003C40080B584B000AF0023FB730023BB810023FE
:1003D400FB72012220215148FFF713FF0122012162
:1003E4004E48FFF70EFF01224FF400614B48FFF720
:1003F40008FF012202214948FFF703FF02224FF4BC
:1004040000514748FFF7FDFE04224FF400714548B0
:10041400FFF7F7FE012220214048FFF7F2FE0122F8
:1004240010213E48FFF70CFF022210213C48FFF741
:1004340007FF00237B6014E0012220213748FFF7E7
:100444001CFF4FF49670FFF7C3FE002220213348AF
:10045400FFF713FF4FF49670FFF7BAFE7B68013382
:100464007B607B68022BE7DD10212C48FFF71FFF20
:100474000346002B1FD11420FFF7AAFE10212748A2
:10048400FFF715FF0346002B15D100BF10212348A9
:10049400FFF70DFF0346002BF8D0FB7B0133FB7302
:1004A400FB7B022B07D90320FFF712FF0320FFF782
:1004B4005DFF0023FB7310211948FFF7F8FE034684
:1004C400002B1AD10A20FFF783FEBB896433BB815A
:1004D400BB89B3F5FA7FC7D3FB7A002BC4D10122C1
:1004E40001210E48FFF7C9FE01224FF400610B48B9
:1004F400FFF7C3FE0123FB72B6E70023BB81002391
:10050400FB72002201210548FFF7B7FE00224FF4D9
:1005140000610248FFF7B1FEA6E700BF00000240F9
:1005240000040240000802400D488546AFF30080F5
:100534000C480D490D4A002302E0D458C45004333A
:10054400C4188C42F9D30A4A0A4C002301E0136010
:100554000432A242FBD300F0F7F8FFF731FFFEE7C5
:10056400008001200000002000000020B4070008E3
:10057400000000201C000020FEE780B487B000AF1C
:100584007860396000237B6100233B610023FB60BA
:1005940000237B6176E001227B6902FA03F33B616D
:1005A4003B681B683A691340FB60FA683B699A42EE
:1005B40065D17B681A687B695B00032101FA03F348
:1005C400DB431A407B681A607B681A683B681B79B6
:1005D40019467B695B0001FA03F31A437B681A60CE
:1005E4003B681B79012B03D03B681B79022B2ED16E
:1005F4007B689A687B695B00032101FA03F3DB43A0
:100604001A407B689A607B689A683B685B791946F4
:100614007B695B0001FA03F31A437B689A607B6889
:100624005A687B699BB2194601238B40DB431A400D
:100634007B685A607B685B683A68927911467A698C
:1006440092B201FA02F292B21A437B685A607B6852
:10065400DA687B699BB25B00032101FA03F3DB4395
:100664001A407B68DA607B68DA683B68DB79194694
:100674007B695B0001FA03F31A437B68DA607B69E8
:1006840001337B617B690F2B85D900BF1C37BD46C5
:100694005DF8047B704780B485B000AF78600B468A
:1006A4007B800023FB737B681A697B881340002BD3
:1006B40002D00123FB7301E00023FB73FB7B18468C
:1006C4001437BD465DF8047B704780B483B000AF37
:1006D40078600B467B807B687A881A8300BF0C376E
:1006E400BD465DF8047B704780B483B000AF78608A
:1006F4000B467B807B687A885A8300BF0C37BD46E3
:100704005DF8047B7047000080B483B000AF78606C
:100714000B46FB70FB78002B06D00A4B1A6B094979
:100724007B6813430B6306E0064B1A6B7B68DB4361
:10073400044913400B6300BF0C37BD465DF8047BCE
:10074400704700BF0038024070B50D4D0D4C641B5E
:10075400A4100026A64209D10B4D0C4C00F018F849
:10076400641BA4100026A64205D170BD55F8043BB5
:1007740098470136EEE755F8043B98470136F2E70F
:10078400AC070008AC070008AC070008B007000875
:10079400F8B500BFF8BC08BC9E467047F8B500BF6A
:0807A400F8BC08BC9E4670473A
:0407AC00B901000887
:0407B00095010008A7
:040000050800052DBD
:00000001FF
